51101AG03     CKDVW    0061300614020610                                                                                         
51201001000000002020610000000001020523 1H9 609 075 A         1H9 609 075 A        AGA130291S2300001ABT STL  S              50   
51301                    0000000000000000000000020715000000000                                                                  
519010000001000000100000010000000000000000000000000001                                                                          
51101FAW-VW-BOCKDVW    0028300284020610                                                                                         
51201001000000002020610000000001020530 1J0 857 487 E  HCQ    1J0 857 487 E  HCQ   FB0001329Z2400001ABT STL  S              50   
51301                    0000000000000000000000020809000000226                                                                  
519010000001000000100000010000000000000000000000000001                                                                          
51101SARJGOLF CKDVW    0000100002020610                                                                                         
51201001000000001020610000000000020610 02K 300 049           02K 300 049          083002259D2400001ABT STL  S              30   
51301                    0000000000000000000000020621000000001                                                                  
51201001000000001020610000000000020610 038 100 028 H         038 100 028 H        083002259D2400001ABT STL  S              30   
51301                    0000000000000000000000020621000000001                                                                  
51201001000000001020610000000000020610 1J0 012 021 AK        1J0 012 021 AK       083002259D2400001ABT STL  S              30   
51301                    0000000000000000000000020621000000001                                                                  
51201001000000001020610000000000020610 1J0 419 091 AA 01C    1J0 419 091 AA 01C   083002259D2400001ABT STL  S              30   
51301                    0000000000000000000000020621000000001                                                                  
51201001000000001020610000000000020610 1J0 500 029           1J0 500 029          083002259D2400001ABT STL  S              30   
51301                    0000000000000000000000020621000000001                                                                  
51201001000000001020610000000000020610 1J0 601 012 AH        1J0 601 012 AH       083002259D2400001ABT STL  S              30   
51301                    0000000000000000000000020621000000005                                                                  
51201001000000001020610000000000020610 1J2 000 000 UA        1J2 000 000 UA       083002259D2400001ABT STL  S              30   
51301                    0000000000000000000000020621000000001                                                                  
51201001000000001020610000000000020610 3B0 880 201 AS 4EC    3B0 880 201 AS 4EC   083002259D2400001ABT STL  S              30   
51301                    0000000000000000000000020621000000001                                                                  
51201001000000001020610000000000020610 02J 300 047 N         02J 300 047 N        083003259D2400001ABT STL  S              30   
51301                    0000000000000000000000020621000000001                                                                  
51201001000000001020610000000000020610 038 100 027 T         038 100 027 T        083003259D2400001ABT STL  S              30   
51301                    0000000000000000000000020621000000001                                                                  
51201001000000001020610000000000020610 1J0 012 021 AK        1J0 012 021 AK       083003259D2400001ABT STL  S              30   
51301                    0000000000000000000000020621000000001                                                                  
51201001000000001020610000000000020610 1J0 419 091 AA 01C    1J0 419 091 AA 01C   083003259D2400001ABT STL  S              30   
51301                    0000000000000000000000020621000000001                                                                  
51201001000000001020610000000000020610 1J0 500 029           1J0 500 029          083003259D2400001ABT STL  S              30   
51301                    0000000000000000000000020621000000001                                                                  
51201001000000001020610000000000020610 1J0 601 012 AH        1J0 601 012 AH       083003259D2400001ABT STL  S              30   
51301                    0000000000000000000000020621000000005                                                                  
51201001000000001020610000000000020610 1J2 000 000 UC        1J2 000 000 UC       083003259D2400001ABT STL  S              30   
51301                    0000000000000000000000020621000000001                                                                  
51201001000000001020610000000000020610 3B0 880 201 AS 4EC    3B0 880 201 AS 4EC   083003259D2400001ABT STL  S              30   
51301                    0000000000000000000000020621000000001                                                                  
51201001000000001020610000000000020610 02J 300 047 M         02J 300 047 M        083004259D2400001ABT STL  S              30   
51301                    0000000000000000000000020621000000001                                                                  
51201001000000001020610000000000020610 038 100 019 J         038 100 019 J        083004259D2400001ABT STL  S              30   
51301                    0000000000000000000000020621000000001                                                                  
51201001000000001020610000000000020610 1J0 012 021 AK        1J0 012 021 AK       083004259D2400001ABT STL  S              30   
51301                    0000000000000000000000020621000000001                                                                  
51201001000000001020610000000000020610 1J0 419 091 AA 01C    1J0 419 091 AA 01C   083004259D2400001ABT STL  S              30   
51301                    0000000000000000000000020621000000001                                                                  
51201001000000001020610000000000020610 1J0 500 029           1J0 500 029          083004259D2400001ABT STL  S              30   
51301                    0000000000000000000000020621000000001                                                                  
51201001000000001020610000000000020610 1J0 601 012 A         1J0 601 012 A        083004259D2400001ABT STL  S              30   
51301                    0000000000000000000000020621000000005                                                                  
51201001000000001020610000000000020610 1J2 000 000 UB        1J2 000 000 UB       083004259D2400001ABT STL  S              30   
51301                    0000000000000000000000020621000000001                                                                  
51201001000000001020610000000000020610 3B0 880 201 AS 4EC    3B0 880 201 AS 4EC   083004259D2400001ABT STL  S              30   
51301                    0000000000000000000000020621000000001                                                                  
51201001000000001020610000000000020610 02J 300 047 M         02J 300 047 M        083005259D2400001ABT STL  S              30   
51301                    0000000000000000000000020621000000001                                                                  
51201001000000001020610000000000020610 038 100 019 J         038 100 019 J        083005259D2400001ABT STL  S              30   
51301                    0000000000000000000000020621000000001                                                                  
51201001000000001020610000000000020610 1J0 012 021 AK        1J0 012 021 AK       083005259D2400001ABT STL  S              30   
51301                    0000000000000000000000020621000000001                                                                  
51201001000000001020610000000000020610 1J0 419 091 AA 01C    1J0 419 091 AA 01C   083005259D2400001ABT STL  S              30   
51301                    0000000000000000000000020621000000001                                                                  
51201001000000001020610000000000020610 1J0 500 029           1J0 500 029          083005259D2400001ABT STL  S              30   
51301                    0000000000000000000000020621000000001                                                                  
51201001000000001020610000000000020610 1J0 601 012 A         1J0 601 012 A        083005259D2400001ABT STL  S              30   
51301                    0000000000000000000000020621000000005                                                                  
51201001000000001020610000000000020610 1J2 000 000 UB        1J2 000 000 UB       083005259D2400001ABT STL  S              30   
51301                    0000000000000000000000020621000000001                                                                  
51201001000000001020610000000000020610 3B0 880 201 AS 4EC    3B0 880 201 AS 4EC   083005259D2400001ABT STL  S              30   
51301                    0000000000000000000000020621000000001                                                                  
51201001000000001020610000000000020610 02K 300 049           02K 300 049          083006259D2400001ABT STL  S              30   
51301                    0000000000000000000000020621000000001                                                                  
51201001000000001020610000000000020610 038 100 028 H         038 100 028 H        083006259D2400001ABT STL  S              30   
51301                    0000000000000000000000020621000000001                                                                  
51201001000000001020610000000000020610 1J0 012 021 AK        1J0 012 021 AK       083006259D2400001ABT STL  S              30   
51301                    0000000000000000000000020621000000001                                                                  
51201001000000001020610000000000020610 1J0 419 091 AA 01C    1J0 419 091 AA 01C   083006259D2400001ABT STL  S              30   
51301                    0000000000000000000000020621000000001                                                                  
51201001000000001020610000000000020610 1J0 500 029           1J0 500 029          083006259D2400001ABT STL  S              30   
51301                    0000000000000000000000020621000000001                                                                  
51201001000000001020610000000000020610 1J0 601 012 AH        1J0 601 012 AH       083006259D2400001ABT STL  S              30   
51301                    0000000000000000000000020621000000005                                                                  
51201001000000001020610000000000020610 1J2 000 000 UA        1J2 000 000 UA       083006259D2400001ABT STL  S              30   
51301                    0000000000000000000000020621000000001                                                                  
51201001000000001020610000000000020610 3B0 880 201 AS 4EC    3B0 880 201 AS 4EC   083006259D2400001ABT STL  S              30   
51301                    0000000000000000000000020621000000001                                                                  
51201001000000001020610000000000020610 02K 300 049           02K 300 049          083007259D2400001ABT STL  S              30   
51301                    0000000000000000000000020621000000001                                                                  
51201001000000001020610000000000020610 038 100 028 H         038 100 028 H        083007259D2400001ABT STL  S              30   
51301                    0000000000000000000000020621000000001                                                                  
51201001000000001020610000000000020610 1J0 012 021 AK        1J0 012 021 AK       083007259D2400001ABT STL  S              30   
51301                    0000000000000000000000020621000000001                                                                  
51201001000000001020610000000000020610 1J0 419 091 AA 01C    1J0 419 091 AA 01C   083007259D2400001ABT STL  S              30   
51301                    0000000000000000000000020621000000001                                                                  
51201001000000001020610000000000020610 1J0 500 029           1J0 500 029          083007259D2400001ABT STL  S              30   
51301                    0000000000000000000000020621000000001                                                                  
51201001000000001020610000000000020610 1J0 601 012 AH        1J0 601 012 AH       083007259D2400001ABT STL  S              30   
51301                    0000000000000000000000020621000000005                                                                  
51201001000000001020610000000000020610 1J2 000 000 UA        1J2 000 000 UA       083007259D2400001ABT STL  S              30   
51301                    0000000000000000000000020621000000001                                                                  
51201001000000001020610000000000020610 3B0 880 201 AS 4EC    3B0 880 201 AS 4EC   083007259D2400001ABT STL  S              30   
51301                    0000000000000000000000020621000000001                                                                  
51201001000000001020610000000000020610 02K 300 049           02K 300 049          083008259D2400001ABT STL  S              30   
51301                    0000000000000000000000020621000000001                                                                  
51201001000000001020610000000000020610 038 100 028 H         038 100 028 H        083008259D2400001ABT STL  S              30   
51301                    0000000000000000000000020621000000001                                                                  
51201001000000001020610000000000020610 1J0 012 021 AK        1J0 012 021 AK       083008259D2400001ABT STL  S              30   
51301                    0000000000000000000000020621000000001                                                                  
51201001000000001020610000000000020610 1J0 419 091 AA 01C    1J0 419 091 AA 01C   083008259D2400001ABT STL  S              30   
51301                    0000000000000000000000020621000000001                                                                  
51201001000000001020610000000000020610 1J0 500 029           1J0 500 029          083008259D2400001ABT STL  S              30   
51301                    0000000000000000000000020621000000001                                                                  
51201001000000001020610000000000020610 1J0 601 012 AH        1J0 601 012 AH       083008259D2400001ABT STL  S              30   
51301                    0000000000000000000000020621000000005                                                                  
51201001000000001020610000000000020610 1J2 000 000 UA        1J2 000 000 UA       083008259D2400001ABT STL  S              30   
51301                    0000000000000000000000020621000000001                                                                  
51201001000000001020610000000000020610 3B0 880 201 AS 4EC    3B0 880 201 AS 4EC   083008259D2400001ABT STL  S              30   
51301                    0000000000000000000000020621000000001                                                                  
51201001000000001020610000000000020610 02J 300 047 M         02J 300 047 M        083009259D2400001ABT STL  S              30   
51301                    0000000000000000000000020621000000001                                                                  
51201001000000001020610000000000020610 038 100 019 J         038 100 019 J        083009259D2400001ABT STL  S              30   
51301                    0000000000000000000000020621000000001                                                                  
51201001000000001020610000000000020610 1J0 012 021 AK        1J0 012 021 AK       083009259D2400001ABT STL  S              30   
51301                    0000000000000000000000020621000000001                                                                  
51201001000000001020610000000000020610 1J0 419 091 AA 01C    1J0 419 091 AA 01C   083009259D2400001ABT STL  S              30   
51301                    0000000000000000000000020621000000001                                                                  
51201001000000001020610000000000020610 1J0 500 029           1J0 500 029          083009259D2400001ABT STL  S              30   
51301                    0000000000000000000000020621000000001                                                                  
51201001000000001020610000000000020610 1J0 601 012 A         1J0 601 012 A        083009259D2400001ABT STL  S              30   
51301                    0000000000000000000000020621000000005                                                                  
51201001000000001020610000000000020610 1J2 000 000 UB        1J2 000 000 UB       083009259D2400001ABT STL  S              30   
51301                    0000000000000000000000020621000000001                                                                  
51201001000000001020610000000000020610 3B0 880 201 AS 4EC    3B0 880 201 AS 4EC   083009259D2400001ABT STL  S              30   
51301                    0000000000000000000000020621000000001                                                                  
51201001000000001020610000000000020610 02K 300 049           02K 300 049          083010259D2400001ABT STL  S              30   
51301                    0000000000000000000000020621000000001                                                                  
51201001000000001020610000000000020610 038 100 028 H         038 100 028 H        083010259D2400001ABT STL  S              30   
51301                    0000000000000000000000020621000000001                                                                  
51201001000000001020610000000000020610 1J0 012 021 AK        1J0 012 021 AK       083010259D2400001ABT STL  S              30   
51301                    0000000000000000000000020621000000001                                                                  
51201001000000001020610000000000020610 1J0 419 091 AA 01C    1J0 419 091 AA 01C   083010259D2400001ABT STL  S              30   
51301                    0000000000000000000000020621000000001                                                                  
51201001000000001020610000000000020610 1J0 500 029           1J0 500 029          083010259D2400001ABT STL  S              30   
51301                    0000000000000000000000020621000000001                                                                  
51201001000000001020610000000000020610 1J0 601 012 AH        1J0 601 012 AH       083010259D2400001ABT STL  S              30   
51301                    0000000000000000000000020621000000005                                                                  
51201001000000001020610000000000020610 1J2 000 000 UA        1J2 000 000 UA       083010259D2400001ABT STL  S              30   
51301                    0000000000000000000000020621000000001                                                                  
51201001000000001020610000000000020610 3B0 880 201 AS 4EC    3B0 880 201 AS 4EC   083010259D2400001ABT STL  S              30   
51301                    0000000000000000000000020621000000001                                                                  
51201001000000001020610000000000020610 02K 300 049           02K 300 049          083011259D2400001ABT STL  S              30   
51301                    0000000000000000000000020621000000001                                                                  
51201001000000001020610000000000020610 038 100 028 H         038 100 028 H        083011259D2400001ABT STL  S              30   
51301                    0000000000000000000000020621000000001                                                                  
51201001000000001020610000000000020610 1J0 012 021 AK        1J0 012 021 AK       083011259D2400001ABT STL  S              30   
51301                    0000000000000000000000020621000000001                                                                  
51201001000000001020610000000000020610 1J0 419 091 AA 01C    1J0 419 091 AA 01C   083011259D2400001ABT STL  S              30   
51301                    0000000000000000000000020621000000001                                                                  
51201001000000001020610000000000020610 1J0 500 029           1J0 500 029          083011259D2400001ABT STL  S              30   
51301                    0000000000000000000000020621000000001                                                                  
51201001000000001020610000000000020610 1J0 601 012 AH        1J0 601 012 AH       083011259D2400001ABT STL  S              30   
51301                    0000000000000000000000020621000000005                                                                  
51201001000000001020610000000000020610 1J2 000 000 UA        1J2 000 000 UA       083011259D2400001ABT STL  S              30   
51301                    0000000000000000000000020621000000001                                                                  
51201001000000001020610000000000020610 3B0 880 201 AS 4EC    3B0 880 201 AS 4EC   083011259D2400001ABT STL  S              30   
51301                    0000000000000000000000020621000000001                                                                  
51201001000000001020610000000000020610 02K 300 049           02K 300 049          083012259D2400001ABT STL  S              30   
51301                    0000000000000000000000020621000000001                                                                  
51201001000000001020610000000000020610 038 100 028 H         038 100 028 H        083012259D2400001ABT STL  S              30   
51301                    0000000000000000000000020621000000001                                                                  
51201001000000001020610000000000020610 1J0 012 021 AK        1J0 012 021 AK       083012259D2400001ABT STL  S              30   
51301                    0000000000000000000000020621000000001                                                                  
51201001000000001020610000000000020610 1J0 419 091 AA 01C    1J0 419 091 AA 01C   083012259D2400001ABT STL  S              30   
51301                    0000000000000000000000020621000000001                                                                  
51201001000000001020610000000000020610 1J0 500 029           1J0 500 029          083012259D2400001ABT STL  S              30   
51301                    0000000000000000000000020621000000001                                                                  
51201001000000001020610000000000020610 1J0 601 012 AH        1J0 601 012 AH       083012259D2400001ABT STL  S              30   
51301                    0000000000000000000000020621000000005                                                                  
51201001000000001020610000000000020610 1J2 000 000 UA        1J2 000 000 UA       083012259D2400001ABT STL  S              30   
51301                    0000000000000000000000020621000000001                                                                  
51201001000000001020610000000000020610 3B0 880 201 AS 4EC    3B0 880 201 AS 4EC   083012259D2400001ABT STL  S              30   
51301                    0000000000000000000000020621000000001                                                                  
51201001000000001020610000000000020610 02J 300 047 M         02J 300 047 M        083014259D2400001ABT STL  S              30   
51301                    0000000000000000000000020621000000001                                                                  
51201001000000001020610000000000020610 038 100 019 J         038 100 019 J        083014259D2400001ABT STL  S              30   
51301                    0000000000000000000000020621000000001                                                                  
51201001000000001020610000000000020610 1J0 012 021 AK        1J0 012 021 AK       083014259D2400001ABT STL  S              30   
51301                    0000000000000000000000020621000000001                                                                  
51201001000000001020610000000000020610 1J0 419 091 AA 01C    1J0 419 091 AA 01C   083014259D2400001ABT STL  S              30   
51301                    0000000000000000000000020621000000001                                                                  
51201001000000001020610000000000020610 1J0 500 029           1J0 500 029          083014259D2400001ABT STL  S              30   
51301                    0000000000000000000000020621000000001                                                                  
51201001000000001020610000000000020610 1J0 601 012 A         1J0 601 012 A        083014259D2400001ABT STL  S              30   
51301                    0000000000000000000000020621000000005                                                                  
51201001000000001020610000000000020610 1J2 000 000 UB        1J2 000 000 UB       083014259D2400001ABT STL  S              30   
51301                    0000000000000000000000020621000000001                                                                  
51201001000000001020610000000000020610 3B0 880 201 AS 4EC    3B0 880 201 AS 4EC   083014259D2400001ABT STL  S              30   
51301                    0000000000000000000000020621000000001                                                                  
51201001000000001020610000000000020610 02J 300 047 M         02J 300 047 M        083016259D2400001ABT STL  S              30   
51301                    0000000000000000000000020621000000001                                                                  
51201001000000001020610000000000020610 038 100 019 J         038 100 019 J        083016259D2400001ABT STL  S              30   
51301                    0000000000000000000000020621000000001                                                                  
51201001000000001020610000000000020610 1J0 012 021 AK        1J0 012 021 AK       083016259D2400001ABT STL  S              30   
51301                    0000000000000000000000020621000000001                                                                  
51201001000000001020610000000000020610 1J0 419 091 AA 01C    1J0 419 091 AA 01C   083016259D2400001ABT STL  S              30   
51301                    0000000000000000000000020621000000001                                                                  
51201001000000001020610000000000020610 1J0 500 029           1J0 500 029          083016259D2400001ABT STL  S              30   
51301                    0000000000000000000000020621000000001                                                                  
51201001000000001020610000000000020610 1J0 601 012 A         1J0 601 012 A        083016259D2400001ABT STL  S              30   
51301                    0000000000000000000000020621000000005                                                                  
51201001000000001020610000000000020610 1J2 000 000 UB        1J2 000 000 UB       083016259D2400001ABT STL  S              30   
51301                    0000000000000000000000020621000000001                                                                  
51201001000000001020610000000000020610 3B0 880 201 AS 4EC    3B0 880 201 AS 4EC   083016259D2400001ABT STL  S              30   
51301                    0000000000000000000000020621000000001                                                                  
51201001000000001020610000000000020610 02J 300 047 M         02J 300 047 M        083017259D2400001ABT STL  S              30   
51301                    0000000000000000000000020621000000001                                                                  
51201001000000001020610000000000020610 038 100 019 J         038 100 019 J        083017259D2400001ABT STL  S              30   
51301                    0000000000000000000000020621000000001                                                                  
51201001000000001020610000000000020610 1J0 012 021 AK        1J0 012 021 AK       083017259D2400001ABT STL  S              30   
51301                    0000000000000000000000020621000000001                                                                  
51201001000000001020610000000000020610 1J0 419 091 AA 01C    1J0 419 091 AA 01C   083017259D2400001ABT STL  S              30   
51301                    0000000000000000000000020621000000001                                                                  
51201001000000001020610000000000020610 1J0 500 029           1J0 500 029          083017259D2400001ABT STL  S              30   
51301                    0000000000000000000000020621000000001                                                                  
51201001000000001020610000000000020610 1J0 601 012 A         1J0 601 012 A        083017259D2400001ABT STL  S              30   
51301                    0000000000000000000000020621000000005                                                                  
51201001000000001020610000000000020610 1J2 000 000 UB        1J2 000 000 UB       083017259D2400001ABT STL  S              30   
51301                    0000000000000000000000020621000000001                                                                  
51201001000000001020610000000000020610 3B0 880 201 AS 4EC    3B0 880 201 AS 4EC   083017259D2400001ABT STL  S              30   
51301                    0000000000000000000000020621000000001                                                                  
51201001000000001020610000000000020610 02J 300 047 N         02J 300 047 N        083018259D2400001ABT STL  S              30   
51301                    0000000000000000000000020621000000001                                                                  
51201001000000001020610000000000020610 038 100 027 T         038 100 027 T        083018259D2400001ABT STL  S              30   
51301                    0000000000000000000000020621000000001                                                                  
51201001000000001020610000000000020610 1J0 012 021 AK        1J0 012 021 AK       083018259D2400001ABT STL  S              30   
51301                    0000000000000000000000020621000000001                                                                  
51201001000000001020610000000000020610 1J0 419 091 AA 01C    1J0 419 091 AA 01C   083018259D2400001ABT STL  S              30   
51301                    0000000000000000000000020621000000001                                                                  
51201001000000001020610000000000020610 1J0 500 029           1J0 500 029          083018259D2400001ABT STL  S              30   
51301                    0000000000000000000000020621000000001                                                                  
51201001000000001020610000000000020610 1J0 601 012 AH        1J0 601 012 AH       083018259D2400001ABT STL  S              30   
51301                    0000000000000000000000020621000000005                                                                  
51201001000000001020610000000000020610 1J2 000 000 UC        1J2 000 000 UC       083018259D2400001ABT STL  S              30   
51301                    0000000000000000000000020621000000001                                                                  
51201001000000001020610000000000020610 3B0 880 201 AS 4EC    3B0 880 201 AS 4EC   083018259D2400001ABT STL  S              30   
51301                    0000000000000000000000020621000000001                                                                  
51201001000000001020610000000000020610 02K 300 049           02K 300 049          083019259D2400001ABT STL  S              30   
51301                    0000000000000000000000020621000000001                                                                  
51201001000000001020610000000000020610 038 100 028 H         038 100 028 H        083019259D2400001ABT STL  S              30   
51301                    0000000000000000000000020621000000001                                                                  
51201001000000001020610000000000020610 1J0 012 021 AK        1J0 012 021 AK       083019259D2400001ABT STL  S              30   
51301                    0000000000000000000000020621000000001                                                                  
51201001000000001020610000000000020610 1J0 419 091 AA 01C    1J0 419 091 AA 01C   083019259D2400001ABT STL  S              30   
51301                    0000000000000000000000020621000000001                                                                  
51201001000000001020610000000000020610 1J0 500 029           1J0 500 029          083019259D2400001ABT STL  S              30   
51301                    0000000000000000000000020621000000001                                                                  
51201001000000001020610000000000020610 1J0 601 012 AH        1J0 601 012 AH       083019259D2400001ABT STL  S              30   
51301                    0000000000000000000000020621000000005                                                                  
51201001000000001020610000000000020610 1J2 000 000 UA        1J2 000 000 UA       083019259D2400001ABT STL  S              30   
51301                    0000000000000000000000020621000000001                                                                  
51201001000000001020610000000000020610 3B0 880 201 AS 4EC    3B0 880 201 AS 4EC   083019259D2400001ABT STL  S              30   
51301                    0000000000000000000000020621000000001                                                                  
51201001000000001020610000000000020610 02K 300 049           02K 300 049          083020259D2400001ABT STL  S              30   
51301                    0000000000000000000000020621000000001                                                                  
51201001000000001020610000000000020610 038 100 028 H         038 100 028 H        083020259D2400001ABT STL  S              30   
51301                    0000000000000000000000020621000000001                                                                  
51201001000000001020610000000000020610 1J0 012 021 AK        1J0 012 021 AK       083020259D2400001ABT STL  S              30   
51301                    0000000000000000000000020621000000001                                                                  
51201001000000001020610000000000020610 1J0 419 091 AA 01C    1J0 419 091 AA 01C   083020259D2400001ABT STL  S              30   
51301                    0000000000000000000000020621000000001                                                                  
51201001000000001020610000000000020610 1J0 500 029           1J0 500 029          083020259D2400001ABT STL  S              30   
51301                    0000000000000000000000020621000000001                                                                  
51201001000000001020610000000000020610 1J0 601 012 AH        1J0 601 012 AH       083020259D2400001ABT STL  S              30   
51301                    0000000000000000000000020621000000005                                                                  
51201001000000001020610000000000020610 1J2 000 000 UA        1J2 000 000 UA       083020259D2400001ABT STL  S              30   
51301                    0000000000000000000000020621000000001                                                                  
51201001000000001020610000000000020610 3B0 880 201 AS 4EC    3B0 880 201 AS 4EC   083020259D2400001ABT STL  S              30   
51301                    0000000000000000000000020621000000001                                                                  
519010000001000013600001360000000000000000000000000001                                                                          
51101SFA4RL   CKDVW    0073600737020610                                                                                         
51201001000000001020610000000000020610 1J0 907 487 B         1J0 907 487 B        SVAF8F244H2400001ABT STL  S              60   
51301                    0000000000000000000000020614000000020                                                                  
519010000001000000100000010000000000000000000000000001                                                                          
51101SF01     CKDVW    0057300574020610                                                                                         
51201001000000001020610000000000020610 6Q0 807 720 A  A6S    6Q0 807 720 A  A6S   218461308S2200001ABT STL  S              50   
51301                    0000000000000000000000020726000000004                                                                  
51201001000000001020610000000000020610 1H2 819 098 A         1H2 819 098 A        218591319Z2400001ABT STL  S              50   
51301                    0000000000000000000000020802000000510                                                                  
51201001000000001020610000000000020610 N   903 102 01        N   903 102 01       218661308L2400001ABT STL  S              50   
51301                    0000000000000000000000020726000020000                                                                  
519010000001000000300000030000000000000000000000000001                                                                          
511015101     CKDVW    0045200453020610                                                                                         
51201001000000002020610000000001020530 6Q0 880 201 K  4EC    6Q0 880 201 K  4EC   510018308L2400001ABT STL  S              50   
51301                    0000000000000000000000020722000000000                                                                  
519010000001000000100000010000000000000000000000000001                                                                          
5110157SV     CKDVW    0100001001020610                                                                                         
51201001000000001020610000000000020610 N   908 515 01        N   908 515 01       BSV541298L2500001ABT STL  S              50   
51301                    0000000000000000000000020719000008000                                                                  
519010000001000000100000010000000000000000000000000001                                                                          
511016701     CKDVW    0078700788020610                                                                                         
51201001000000001020610000000000020610 022 115 607 D         022 115 607 D         VR6RE247Z2400001ABT STL  S              60   
51301                    0000000000000000000000020614000000010                                                                  
51201001000000001020610000000000020610 022 115 607 J         022 115 607 J         VR6RE247Z2400001ABT STL  S              60   
51301                    0000000000000000000000020614000000010                                                                  
519010000001000000200000020000000000000000000000000001                                                                          
511016705     CKDVW    0103501036020610                                                                                         
51201001000000001020610000000000020610 06A 121 132           06A 121 132          WSKW27288B2400001ABT STL  S              50   
51301                    0000000000000000000000020710000001000                                                                  
51201001000000001020610000000000020610 06A 121 132           06A 121 132          WSKW27298B2500001ABT STL  S              50   
51301                    0000000000000000000000020717000000500                                                                  
51201001000000002020610000000001020531 06A 121 132           06A 121 132          670501298B2400001ABT STL  S              50   
51301                    0000000000000000000000020717000003500                                                                  
51201001000000002020610000000001020607 06A 121 132           06A 121 132          670501308B2500001ABT STL  S              50   
51301                    0000000000000000000000020724000004000                                                                  
519010000001000000400000040000000000000000000000000001                                                                          
511016708     CKDVW    0050200503020610                                                                                         
51201001000000001020610000000000020610 1Y0 871 381           1Y0 871 381          VVS231299L2400001ABT STL  S              50   
51301                    0000000000000000000000020719000000180                                                                  
51201001000000001020610000000000020610 1Y0 871 433           1Y0 871 433          VVS231299L2400001ABT STL  S              50   
51301                    0000000000000000000000020719000000360                                                                  
519010000001000000200000020000000000000000000000000001                                                                          
